:10000000653084000730F000F630F10011208000E8
:10001000840A04086F3A03191528F10A0319F00A33
:10002000062870088A00710882006F3084007030E2
:100030000A128A1120200A128A110A128A1128280B
:1000400064008001840A0406031900340406212890
:100050000310831603130030031801308600FC30B0
:1000600087000A30F5000030F60083126F08F000B8
:10007000F1017008F3007108F4000A128A11852753
:100080000A128A117308F200831203137208FD002A
:100090000A30F5000030F6006F08F000F10170083A
:1000A000F3007108F4000A128A112A270A128A1131
:1000B0007308F200831203137208FC000030A000E2
:1000C0000030A100632807147D08653E8400831377
:1000D00000186B286F2883120313071472288312E9
:1000E000031307100030F6000030F5001B30F40059
:1000F0005830F3000A128A1102270A128A110030BE
:1001000083120313A0000030A100862864306F0220
:10011000031C8B288C289228031000300318013010
:10012000EF0096280130F0007008EF070A30F50064
:100130000030F6006F08F000F1017008F30071085C
:10014000F4000A128A112A270A128A117308F2008F
:10015000831203137208FC0087147C08653E840038
:1001600083130018B428B828831203138714BB28FC
:100170008312031387100030F6000030F5001B30A7
:10018000F4005830F3000A128A1102270A128A1169
:100190000030F6000030F5000030F4006430F30069
:1001A0000A128A1102270A128A11831203130130DC
:1001B000A0070318A10A0030A1072108803AF00027
:1001C00080307002031DE6280A302002031CE92853
:1001D000EA2886280130A0070318A10A0030A107E9
:1001E0002108803AF00080307002031DF9280A309F
:1001F0002002031CFC28FD28632831280A128A11DA
:020200000028D4
:100E0400032FFF30F307FF3003110318013E031DC6
:100E1400F407FF3003110318013E031DF507FF30EB
:100E240003110318013E031DF607FF307606031D68
:100E3400252FFF307506031D252FFF307406031D73
:100E4400252FFF307306031D282F292F032F080099
:100E54000310003003180130F700F41F322F332F32
:100E64003B2FF309F409F30A0319F40AF7010314F5
:100E7400F70DF61F3E2F3F2F442FF509F609F50A0B
:100E84000319F60A760875040319492F4A2F7A2F95
:100E9400F8010314F80D592F01300310F50DF60D68
:100EA400FF3E031D4F2F0130F9007908F807F61FA4
:100EB4005C2F5D2F4E2F76087402031D632F750877
:100EC4007302031C662F672F6D2F7508F3027608D3
:100ED400031CF403F40201300310F60CF50CFF3E7E
:100EE400031D6E2F0130F802031D792F7A2F5D2F19
:100EF400F708031D7E2F832FF309F409F30A03195E
:100F0400F40A842F08000310003003180130F7009E
:100F1400F61F8D2F8E2F962FF509F609F50A031962
:100F2400F60AF7010314F70DF41F992F9A2FA32F34
:100F3400F309F409F30A0319F40A0130FB007B08EE
:100F4400F7060030F9000030FA007608750403193A
:100F5400AC2FAD2FE52FF8010314F80DBC2F013091
:100F64000310F50DF60DFF3E031DB22F0130FB00FB
:100F74007B08F807F61FBF2FC02FB12F01300310D5
:100F8400F90DFA0DFF3E031DC12F76087402031DEF
:100F9400CD2F75087302031CD02FD12FD82F7508BD
:100FA400F3027608031CF403F402791401300310ED
:100FB400F60CF50CFF3E031DD92F0130F802031D7A
:100FC400E42FE52FC02FF708031DE92FEE2FF909B1
:100FD400FA09F90A0319FA0A7908F301F3077A08F6
:100FE400F401F407F52F0800C034F934A434B03404
:0C0FF400993492348234F8348034903404
:00000001FF
